:040000006BEF01F0B1
:06000800648201ED08F026
:100018006480D8CFA2F0E8CFA3F0E0CFA4F0FACF65
:10002800A5F0FBCFA6F0E1CFA7F0E2CFA8F0D9CF9B
:10003800A9F0DACFAAF0F3CFABF0F4CFACF0F0A68A
:1000480028EF00F02AEF00F033EF00F0F0A02FEFD8
:1000580000F031EF00F033EF00F061EC12F0F0A89F
:1000680038EF00F03AEF00F043EF00F0F0A23FEF76
:1000780000F041EF00F043EF00F049EC12F0F2A677
:1000880048EF00F04AEF00F065EF00F0F2A04FEF04
:1000980000F051EF00F065EF00F081A856EF00F096
:1000A80058EF00F065EF00F01850D8A45EEF00F0AC
:1000B80060EF00F065EF00F0010E186E010E46ECDF
:1000C8000FF0F2A66AEF00F06CEF00F087EF00F097
:1000D800F2A071EF00F073EF00F087EF00F081B845
:1000E80078EF00F07AEF00F087EF00F01804D8A45A
:1000F80080EF00F082EF00F087EF00F0000E186E3E
:10010800000E46EC0FF0F2A68CEF00F08EEF00F038
:10011800A9EF00F0F2A093EF00F095EF00F0A9EF3F
:1001280000F081AA9AEF00F09CEF00F0A9EF00F030
:100138001750D8A4A2EF00F0A4EF00F0A9EF00F048
:10014800010E176E010E05EC0FF0F2A6AEEF00F0EF
:10015800B0EF00F0CBEF00F0F2A0B5EF00F0B7EF92
:1001680000F0CBEF00F081BABCEF00F0BEEF00F07A
:10017800CBEF00F01704D8A4C4EF00F0C6EF00F0EE
:10018800CBEF00F0000E176E000E05EC0FF0F2A694
:10019800D0EF00F0D2EF00F0EDEF00F0F2A0D7EFD3
:1001A80000F0D9EF00F0EDEF00F081ACDEEF00F0E9
:1001B800E0EF00F0EDEF00F01650D8A4E6EF00F005
:1001C800E8EF00F0EDEF00F0010E166E010EC4EC42
:1001D8000EF0F2A6F2EF00F0F4EF00F00FEF01F0EE
:1001E800F2A0F9EF00F0FBEF00F00FEF01F081BC97
:1001F80000EF01F002EF01F00FEF01F01604D8A4B0
:1002080008EF01F00AEF01F00FEF01F0000E166E93
:10021800000EC4EC0EF0F2A614EF01F016EF01F098
:1002280031EF01F0F2A01BEF01F01DEF01F031EF0B
:1002380001F081AE22EF01F024EF01F031EF01F07F
:100248001650D8A42AEF01F02CEF01F031EF01F09D
:10025800010E156E010E83EC0EF0F2A636EF01F0DA
:1002680038EF01F053EF01F0F2A03DEF01F03FEF5E
:1002780001F053EF01F081BE44EF01F046EF01F0C9
:1002880053EF01F01504D8A44CEF01F04EEF01F044
:1002980053EF01F0000E156E000E83EC0EF0ACC0AB
:1002A800F4FFABC0F3FFAAC0DAFFA9C0D9FFA8C00A
:1002B800E2FFA7C0E1FFA6C0FBFFA5C0FAFFA4C0EC
:1002C800E0FFA3C0E8FFA2C0D8FF6490100003EFCE
:0202D80012F022
:1010000000000600FACF3CF0FBCF3DF0E1CF3EF010
:10101000E2CF3FF0D9CF40F0DACF41F0F3CF42F04A
:10102000F4CF43F0F2A817EF08F019EF08F022EF21
:1010300008F0F2A21EEF08F020EF08F022EF08F00F
:10104000A9EC12F0F0A627EF08F029EF08F032EF34
:1010500008F0F0A02EEF08F030EF08F032EF08F0C3
:1010600091EC12F0F0A837EF08F039EF08F042EFFA
:1010700008F0F0A23EEF08F040EF08F042EF08F071
:1010800079EC12F0F2A647EF08F049EF08F064EFB0
:1010900008F0F2A04EEF08F050EF08F064EF08F00F
:1010A00081A855EF08F057EF08F064EF08F01850EA
:1010B000D8A45DEF08F05FEF08F064EF08F0010ED0
:1010C000186E010E4AEC10F0F2A669EF08F06BEF13
:1010D00008F086EF08F0F2A070EF08F072EF08F069
:1010E00086EF08F081B877EF08F079EF08F086EF27
:1010F00008F01804D8A47FEF08F081EF08F086EF1D
:1011000008F0000E186E000E4AEC10F0F2A68BEFFD
:1011100008F08DEF08F0A8EF08F0F2A092EF08F0C9
:1011200094EF08F0A8EF08F081AA99EF08F09BEF80
:1011300008F0A8EF08F01750D8A4A1EF08F0A3EF2B
:1011400008F0A8EF08F0010E176E010E09EC10F080
:10115000F2A6ADEF08F0AFEF08F0CAEF08F0F2A08A
:10116000B4EF08F0B6EF08F0CAEF08F081BABBEFB1
:1011700008F0BDEF08F0CAEF08F01704D8A4C3EFD9
:1011800008F0C5EF08F0CAEF08F0000E176E000E69
:1011900009EC10F0F2A6CFEF08F0D1EF08F0ECEF79
:1011A00008F0F2A0D6EF08F0D8EF08F0ECEF08F066
:1011B00081ACDDEF08F0DFEF08F0ECEF08F016503F
:1011C000D8A4E5EF08F0E7EF08F0ECEF08F0010E27
:1011D000166E010EC8EC0FF0F2A6F1EF08F0F3EF77
:1011E00008F00EEF09F0F2A0F8EF08F0FAEF08F0BF
:1011F0000EEF09F081BCFFEF08F001EF09F00EEFF0
:1012000009F01604D8A407EF09F009EF09F00EEF72
:1012100009F0000E166E000EC8EC0FF0F2A613EFE8
:1012200009F015EF09F030EF09F0F2A01AEF09F01C
:101230001CEF09F030EF09F081AE21EF09F023EF48
:1012400009F030EF09F01650D8A429EF09F02BEF80
:1012500009F030EF09F0010E156E010E87EC0FF06A
:10126000F2A635EF09F037EF09F052EF09F0F2A0DE
:101270003CEF09F03EEF09F052EF09F081BE43EF79
:1012800009F045EF09F052EF09F01504D8A44BEF2F
:1012900009F04DEF09F052EF09F0000E156E000E47
:1012A00087EC0FF043C0F4FF42C0F3FF41C0DAFF08
:1012B00040C0D9FF3FC0E2FF3EC0E1FF3DC0FBFFA1
:1012C0003CC0FAFF649211000001B751D8A46BEF43
:1012D00009F06DEF09F06FEF09F02FEF0AF0F296C9
:1012E000000EF2B6010EB96FF290000EF2B0010ED0
:1012F000B96FD08EB751D96EDA6A050ED926DE04E1
:10130000D8A485EF09F087EF09F08BEF09F0F28E92
:10131000F1809AEF09F0B751D96EDA6A050ED92635
:10132000DF50D8A496EF09F098EF09F09AEF09F092
:10133000F28CF190B751040FB46F8BEC10F00001F8
:10134000B9170BEF0AF0B751D96EDA6ADECFADF0FC
:10135000DDCFAEF0B2EC13F00001B917B751D96E82
:10136000DA6A020ED926DECFADF0DDCFAEF0A0EC0A
:1013700013F00001B91726EF0AF0B751D96EDA6AF7
:10138000DECFADF0DDCFAEF08EEC13F00001B9177B
:10139000B751D96EDA6A020ED926DECFADF0DDCFB5
:1013A000AEF07CEC13F00001B91726EF0AF0B7514C
:1013B000D96EDA6ADECFADF0DDCFAEF06AEC13F0B5
:1013C0000001B917B751D96EDA6A020ED926DECFFD
:1013D000ADF0DDCFAEF058EC13F00001B91726EFF9
:1013E0000AF0B751D96EDA6ADECFADF0DDCFAEF0DC
:1013F00046EC13F00001B917B751D96EDA6A020E44
:10140000D926DECFADF0DDCFAEF034EC13F0000125
:10141000B91726EF0AF0B751D96EDA6A040ED92649
:10142000DF30E832E832070B040AD8B4A3EF09F042
:10143000010AD8B4BDEF09F0030AD8B4D7EF09F018
:10144000010AD8B4F1EF09F026EF0AF0F250F70BD9
:101450000809F26EF230E832E832010BB9171200D7
:101460000001AD51D8B437EF0AF039EF0AF057EF69
:101470000AF0AD51D96EDA6ADF30E832E832070B94
:10148000AE6F080EAE6147EF0AF049EF0AF057EF72
:101490000AF0AD51D96EDA6ADF50070BAE6F040E59
:1014A000AE6555EF0AF057EF0AF0AEEF0AF0C4EF61
:1014B0000AF0AD51D96EDA6ADF30E832E832070B54
:1014C000AE6F010EAF6FAE2B68EF0AF0D890AF375A
:1014D000AE2F66EF0AF00001AD51D96EDA6ADF5027
:1014E000070B020DF3500B0FD96EDA6ADECFB0F0A6
:1014F000DDCFB1F0B0C0D9FFB1C0DAFFAF51DF121C
:1015000057EF0AF0AD51D96EDA6ADF30E832E832CF
:10151000070BAE6F010EAF6FAE2B91EF0AF0D890B4
:10152000AF37AE2F8FEF0AF00001AF51FF0AB06F57
:10153000AD51D96EDA6ADF50070B020DF3500B0F75
:10154000D96EDA6ADECFB1F0DDCFB2F0B1C0D9FF2B
:10155000B2C0DAFFB051DF1657EF0AF0AD51D96EC5
:10156000DA6ADFBCB6EF0AF0B9EF0AF0010EBAEFA3
:101570000AF0000E000AD8B482EF0AF0010AD8B4CB
:1015800059EF0AF057EF0AF0010E12000001AD51B9
:10159000D8B4CDEF0AF0CFEF0AF0EDEF0AF0AD517D
:1015A000D96EDA6ADF30E832E832070BAF6F080E27
:1015B000AF61DDEF0AF0DFEF0AF0EDEF0AF0AD51B9
:1015C000D96EDA6ADF50070BAF6F040EAF65EBEF31
:1015D0000AF0EDEF0AF044EF0BF059EF0BF0AD51CC
:1015E000D96EDA6ADF30E832E832070BAF6F010EEE
:1015F000B06FAF2BFEEF0AF0D890B037AF2FFCEFF3
:101600000AF00001B051FF0AB16FAD51D96EDA6A2C
:10161000DF50070B020DF350010FD96EDA6ADECFEF
:10162000B2F0DDCFB3F0B2C0D9FFB3C0DAFFB15131
:10163000DF16EDEF0AF0AD51D96EDA6ADF30E8322D
:10164000E832070BAF6F010EB06FAF2B2AEF0BF034
:10165000D890B037AF2F28EF0BF00001AD51D96E05
:10166000DA6ADF50070B020DF350010FD96EDA6A08
:10167000DECFB1F0DDCFB2F0B1C0D9FFB2C0DAFF3A
:10168000B051DF12EDEF0AF0AE51AF6FB06BB05159
:10169000000AD8B44EEF0BF0EDEF0AF0AF51000A9C
:1016A000D8B4EFEF0AF0010AD8B41BEF0BF0EDEF5E
:1016B0000AF0010E12004450D8B461EF0BF063EF52
:1016C0000BF081EF0BF04450D96EDA6ADF30E8326C
:1016D000E832070B466E080E466071EF0BF073EFB1
:1016E0000BF081EF0BF04450D96EDA6ADF50070B34
:1016F000466E040E46647FEF0BF081EF0BF0D6EFE1
:101700000BF0EBEF0BF04450D96EDA6ADF30E832C1
:10171000E832070B466E010E476E462A92EF0BF039
:10172000D8904736462E90EF0BF04750FF0A486E90
:101730004450D96EDA6ADF50070B020DF350010FE7
:10174000D96EDA6ADECF49F0DDCF4AF049C0D9FF61
:101750004AC0DAFF4850DF1681EF0BF04450D96ED3
:10176000DA6ADF30E832E832070B466E010E476E68
:10177000462ABDEF0BF0D8904736462EBBEF0BF054
:101780004450D96EDA6ADF50070B020DF350010F97
:10179000D96EDA6ADECF48F0DDCF49F048C0D9FF14
:1017A00049C0DAFF4750DF1281EF0BF04550466E1B
:1017B000476A4750000AD8B4E0EF0BF081EF0BF016
:1017C0004650000AD8B483EF0BF0010AD8B4AEEF4C
:1017D0000BF081EF0BF0010E12003250D8B4F3EF92
:1017E0000BF0F5EF0BF013EF0CF03250D96EDA6A14
:1017F000DF30E832E832070B346E080E346003EF56
:101800000CF005EF0CF013EF0CF03250D96EDA6AE1
:10181000DF50070B346E040E346411EF0CF013EF3D
:101820000CF068EF0CF07DEF0CF03250D96EDA6AF4
:10183000DF30E832E832070B346E010E356E342AA1
:1018400024EF0CF0D8903536342E22EF0CF03550C2
:10185000FF0A366E3250D96EDA6ADF50070B020D7E
:10186000F350010FD96EDA6ADECF37F0DDCF38F0F2
:1018700037C0D9FF38C0DAFF3650DF1613EF0CF04F
:101880003250D96EDA6ADF30E832E832070B346E54
:10189000010E356E342A4FEF0CF0D8903536342EC9
:1018A0004DEF0CF03250D96EDA6ADF50070B020DA3
:1018B000F350010FD96EDA6ADECF36F0DDCF37F0A4
:1018C00036C0D9FF37C0DAFF3550DF1213EF0CF006
:1018D0003350346E356A3550000AD8B472EF0CF0CC
:1018E00013EF0CF03450000AD8B415EF0CF0010AD5
:1018F000D8B440EF0CF013EF0CF0010E1200000111
:10190000AD51D8A486EF0CF088EF0CF08AEF0CF004
:101910000AEF0DF0ECEF0CF0AD51D96EDA6A050E5E
:10192000D926DE04D8A497EF0CF099EF0CF09CEFC9
:101930000CF0F18C0AEF0DF0AD51D96EDA6A050E9C
:10194000D926DF50D8A4A7EF0CF0A9EF0CF00AEFCE
:101950000DF0F19C0AEF0DF0AD51D96EDA6A050E6B
:10196000D926DE04D8A4B7EF0CF0B9EF0CF0BCEF29
:101970000CF0F18A0AEF0DF0AD51D96EDA6A050E5E
:10198000D926DF50D8A4C7EF0CF0C9EF0CF00AEF4E
:101990000DF0F19C0AEF0DF0AD51D96EDA6A050E2B
:1019A000D926DE04D8A4D7EF0CF0D9EF0CF0DCEF89
:1019B0000CF0F1880AEF0DF0AD51D96EDA6A050E20
:1019C000D926DF50D8A4E7EF0CF0E9EF0CF00AEFCE
:1019D0000DF0F19C0AEF0DF0AD51D96EDA6A040EEC
:1019E000D926DF50AE6FAF6BAF51000AD8B4FBEF12
:1019F0000CF00AEF0DF0AE51000AD8B48CEF0CF0E9
:101A0000010AD8B4ACEF0CF0030AD8B4CCEF0CF058
:101A10000AEF0DF0010E12000001AD51D8A413EF32
:101A20000DF015EF0DF017EF0DF07FEF0DF061EFFA
:101A30000DF0D08EF28EF2887FEF0DF0D08EAD518A
:101A4000D96EDA6A030ED926DE04D8A42AEF0DF087
:101A50002CEF0DF02FEF0DF0F28E3DEF0DF0AD51AC
:101A6000D96EDA6A030ED926DF50D8A43AEF0DF00A
:101A70003CEF0DF03DEF0DF0F28CF0867FEF0DF0B6
:101A8000AD51D96EDA6A030ED926DE04D8A44BEF25
:101A90000DF04DEF0DF050EF0DF0F28E5EEF0DF00A
:101AA000AD51D96EDA6A030ED926DF50D8A45BEFA8
:101AB0000DF05DEF0DF05EEF0DF0F28CF0887FEF32
:101AC0000DF0AD51D96EDA6A040ED926DF50AE6F33
:101AD000AF6BAF51000AD8B470EF0DF015EF0DF0F9
:101AE000AE51000AD8B419EF0DF0010AD8B41EEFB8
:101AF0000DF0030AD8B440EF0DF015EF0DF0010E14
:101B000012000001AD51D8A488EF0DF08AEF0DF05E
:101B10008CEF0DF0ECEF0DF0CEEF0DF0AD51D96E76
:101B2000DA6A030ED926DE04D8A499EF0DF09BEFF4
:101B30000DF09EEF0DF0F08CECEF0DF0AD51D96E85
:101B4000DA6A030ED926DF50D8A4A9EF0DF0ABEF67
:101B50000DF0ECEF0DF0F09CECEF0DF0AD51D96E07
:101B6000DA6A030ED926DE04D8A4B9EF0DF0BBEF74
:101B70000DF0BEEF0DF0F08EECEF0DF0AD51D96E23
:101B8000DA6A030ED926DF50D8A4C9EF0DF0CBEFE7
:101B90000DF0ECEF0DF0F09EECEF0DF0AD51D96EC5
:101BA000DA6A040ED926DF50AE6FAF6BAF51000A70
:101BB000D8B4DDEF0DF0ECEF0DF0AE51000AD8B463
:101BC000ECEF0DF0010AD8B48EEF0DF0030AD8B493
:101BD000AEEF0DF0ECEF0DF0010E12000001AF5171
:101BE000D8A4F5EF0DF0F7EF0DF0F9EF0DF03AEFA7
:101BF0000EF01CEF0EF0AF51D96EDA6ADECFADF009
:101C0000DDCFAEF0F7EC13F03AEF0EF0AF51D96E36
:101C1000DA6ADECFADF0DDCFAEF0E6EC13F03AEFEE
:101C20000EF0AF51D96EDA6ADECFADF0DDCFAEF097
:101C3000D5EC13F03AEF0EF0AF51D96EDA6A040E1C
:101C4000D926DF50B06FB16BB151000AD8B42BEF79
:101C50000EF03AEF0EF0B051000AD8B4FBEF0DF0E1
:101C6000010AD8B406EF0EF0030AD8B411EF0EF053
:101C70003AEF0EF0010E1200310E0001B76FC1EC09
:101C800012F0300E0001B76FC1EC12F02F0E000100
:101C9000B76FC1EC12F02E0E0001B76FC1EC12F05D
:101CA0002D0E0001B76FC1EC12F02C0E0001B76FC2
:101CB000C1EC12F02B0E0001B76FC1EC12F09C0EBC
:101CC0000001B76FCBEC10F0960E0001B76FCBECB4
:101CD00010F0900E0001B76FCBEC10F0250E000154
:101CE000B76F64EC09F01F0E0001B76F64EC09F0E8
:101CF000190E0001B76F64EC09F08A0E0001B76F8E
:101D000064EC09F012004D6EF2904D50D8A48BEFA8
:101D10000EF08DEF0EF0A5EF0EF04E504F10D8B430
:101D200094EF0EF096EF0EF0A5EF0EF002D8A3EFB1
:101D30000EF00500FA6E4E50FD6E4F50FE6EF850DC
:101D4000FF6EFA501200C3EF0EF04D04D8A4ABEFB3
:101D50000EF0ADEF0EF0C3EF0EF050505110D8B4AE
:101D6000B4EF0EF0B6EF0EF0C3EF0EF002D8C3EFF3
:101D70000EF00500FA6E5050FD6E5150FE6EF85098
:101D8000FF6EFA50120012004D6EF2904D50D8A422
:101D9000CCEF0EF0CEEF0EF0E6EF0EF052505310F7
:101DA000D8B4D5EF0EF0D7EF0EF0E6EF0EF002D874
:101DB000E4EF0EF00500FA6E5250FD6E5350FE6EC9
:101DC000F850FF6EFA50120004EF0FF04D04D8A443
:101DD000ECEF0EF0EEEF0EF004EF0FF05450551054
:101DE000D8B4F5EF0EF0F7EF0EF004EF0FF002D8D5
:101DF00004EF0FF00500FA6E5450FD6E5550FE6E64
:101E0000F850FF6EFA50120012004D6EF2904D50D5
:101E1000D8A40DEF0FF00FEF0FF027EF0FF0565093
:101E20005710D8B416EF0FF018EF0FF027EF0FF0A0
:101E300002D825EF0FF00500FA6E5650FD6E575090
:101E4000FE6EF850FF6EFA50120045EF0FF04D0491
:101E5000D8A42DEF0FF02FEF0FF045EF0FF05850F3
:101E60005910D8B436EF0FF038EF0FF045EF0FF000
:101E700002D845EF0FF00500FA6E5850FD6E59502C
:101E8000FE6EF850FF6EFA50120012004D6EF29086
:101E90004D50D8A44EEF0FF050EF0FF068EF0FF059
:101EA0005A505B10D8B457EF0FF059EF0FF068EFAE
:101EB0000FF002D866EF0FF00500FA6E5A50FD6E73
:101EC0005B50FE6EF850FF6EFA50120086EF0FF076
:101ED0004D04D8A46EEF0FF070EF0FF086EF0FF007
:101EE0005C505D10D8B477EF0FF079EF0FF086EF0C
:101EF0000FF002D886EF0FF00500FA6E5C50FD6E11
:101F00005D50FE6EF850FF6EFA50120012003B6EEC
:101F1000F2903B50D8A48FEF0FF091EF0FF0A9EFA4
:101F20000FF04E504F10D8B498EF0FF09AEF0FF01B
:101F3000A9EF0FF002D8A7EF0FF00500FA6E4E5090
:101F4000FD6E4F50FE6EF850FF6EFA501200C7EF54
:101F50000FF03B04D8A4AFEF0FF0B1EF0FF0C7EFD5
:101F60000FF050505110D8B4B8EF0FF0BAEF0FF097
:101F7000C7EF0FF002D8C7EF0FF00500FA6E505010
:101F8000FD6E5150FE6EF850FF6EFA5012001200B6
:101F90003B6EF2903B50D8A4D0EF0FF0D2EF0FF091
:101FA000EAEF0FF052505310D8B4D9EF0FF0DBEF37
:101FB0000FF0EAEF0FF002D8E8EF0FF00500FA6E2D
:101FC0005250FD6E5350FE6EF850FF6EFA501200E4
:101FD00008EF10F03B04D8A4F0EF0FF0F2EF0FF091
:101FE00008EF10F054505510D8B4F9EF0FF0FBEF94
:101FF0000FF008EF10F002D808EF10F00500FA6EAD
:102000005450FD6E5550FE6EF850FF6EFA5012009F
:1020100012003B6EF2903B50D8A411EF10F013EF7A
:1020200010F02BEF10F056505710D8B41AEF10F0F4
:102030001CEF10F02BEF10F002D829EF10F0050084
:10204000FA6E5650FD6E5750FE6EF850FF6EFA5005
:10205000120049EF10F03B04D8A431EF10F033EF39
:1020600010F049EF10F058505910D8B43AEF10F072
:102070003CEF10F049EF10F002D849EF10F00500E6
:10208000FA6E5850FD6E5950FE6EF850FF6EFA50C1
:10209000120012003B6EF2903B50D8A452EF10F0A9
:1020A00054EF10F06CEF10F05A505B10D8B45BEFA7
:1020B00010F05DEF10F06CEF10F002D86AEF10F046
:1020C0000500FA6E5A50FD6E5B50FE6EF850FF6EC2
:1020D000FA5012008AEF10F03B04D8A472EF10F00F
:1020E00074EF10F08AEF10F05C505D10D8B47BEF05
:1020F00010F07DEF10F08AEF10F002D88AEF10F0A8
:102100000500FA6E5C50FD6E5D50FE6EF850FF6E7D
:10211000FA50120012000001B451D8B492EF10F03E
:1021200094EF10F0B2EF10F0B451D96EDA6ADF30EC
:10213000E832E832070BB56F080EB561A2EF10F078
:10214000A4EF10F0B2EF10F0B451D96EDA6ADF509C
:10215000070BB56F040EB565B0EF10F0B2EF10F0DD
:10216000B6EF10F0010EB66FC9EF10F0B4C0ADF0CD
:1021700030EC0AF00001B66FB4C0ADF0B451D96EC6
:10218000DA6A000EDFBE010EAE6FC6EC0AF0000187
:10219000B617B65112000001B751D8A4D2EF10F013
:1021A000D4EF10F0D6EF10F002EF11F0B7C0ADF0A1
:1021B00003EC11F00001B86FB7C0ADF039EC11F0CD
:1021C0000001B817B7C0ADF07FEC0CF00001B817F4
:1021D000D08EB7C0ADF081EC0DF00001B817B7514B
:1021E000020FB46F8BEC10F00001B817B7C0AFF05E
:1021F000EEEC0DF00001B817B7C0ADF00CEC0DF02F
:102200000001B81712000001AD51D8A40AEF11F077
:102210000CEF11F00EEF11F037EF11F019EF11F094
:10222000F29837EF11F0F09637EF11F0F09837EFA2
:1022300011F0AD51D96EDA6A040ED926DF50AE6FB7
:10224000AF6BAF51000AD8B428EF11F00CEF11F0CA
:10225000AE51000AD8B410EF11F0010AD8B413EF50
:1022600011F0030AD8B416EF11F00CEF11F0010EC3
:1022700012000001AD51D8A440EF11F042EF11F06F
:1022800044EF11F06DEF11F04FEF11F0F2926DEF9E
:1022900011F0F0906DEF11F0F0926DEF11F0AD5183
:1022A000D96EDA6A040ED926DF50AE6FAF6BAF512C
:1022B000000AD8B45EEF11F042EF11F0AE51000AFF
:1022C000D8B446EF11F0010AD8B449EF11F0030A6F
:1022D000D8B44CEF11F042EF11F0010E12000001E2
:1022E000AE51D96EDA6ADF50070BAF6FAD51D96EC0
:1022F000DA6ADF50AF19F80BAF19DF6EAE51D96E45
:10230000DA6ADF30E832E832070BAF6FAD51D96ED1
:10231000DA6AAF47AF47AF47DF50AF19C70BAF1906
:10232000DF6EAD51D96EDA6ADF9CAE51D96EDA6AD2
:10233000AD51E16EE26AE79EDFACA0EF11F0E78EEF
:1023400012004550D96EDA6ADF50070B466E4450D2
:10235000D96EDA6ADF504618F80B4618DF6E455022
:10236000D96EDA6ADF30E832E832070B466E445045
:10237000D96EDA6A464646464646DF504618C70BCF
:102380004618DF6E4450D96EDA6ADF9C4550D96E2C
:10239000DA6A4450E16EE26AE79EDFACD1EF11F0F9
:1023A000E78E12003350D96EDA6ADF50070B346EB5
:1023B0003250D96EDA6ADF503418F80B3418DF6EF9
:1023C0003350D96EDA6ADF30E832E832070B346E08
:1023D0003250D96EDA6A344634463446DF50341807
:1023E000C70B3418DF6E3250D96EDA6ADF9C335077
:1023F000D96EDA6A3250E16EE26AE79EDFAC02EF34
:1024000012F0E78E1200880EF66E270EF76E000EA1
:10241000F86E00EE80F010EE22F00900F5CFEEFF2E
:10242000E550E150FAE1600EF66E240EF76E000EF4
:10243000F86E00EE01F010EE31F00900F5CFEEFF7E
:10244000E550E150FAE100EE4EF0160EEE6AE806B5
:10245000FDE164906492000EF86E000176EF14F0D6
:10246000890F8A0F8B0F8C0F8D0F920F930F940F84
:10247000950F960F01010101602810287101742841
:1024800024286901882838286101322A221A120A70
:012490000249
:10249200F2925E505F10D8B451EF12F053EF12F087
:1024A20060EF12F002D860EF12F00500FA6E5E5093
:1024B200FD6E5F50FE6EF850FF6EFA501200120071
:1024C200F09060506110D8B469EF12F06BEF12F027
:1024D20078EF12F002D878EF12F00500FA6E605031
:1024E200FD6E6150FE6EF850FF6EFA50120012003F
:1024F200F2925E505F10D8B481EF12F083EF12F0C7
:1025020090EF12F002D890EF12F00500FA6E5E50D2
:10251200FD6E5F50FE6EF850FF6EFA501200120010
:10252200F09060506110D8B499EF12F09BEF12F066
:10253200A8EF12F002D8A8EF12F00500FA6E605070
:10254200FD6E6150FE6EF850FF6EFA5012001200DE
:10255200F29262506310D8B4B1EF12F0B3EF12F0FE
:10256200C0EF12F002D8C0EF12F00500FA6E62500E
:10257200FD6E6350FE6EF850FF6EFA5012001200AC
:102582000001B751D8A4C8EF12F0CAEF12F0CCEF95
:1025920012F0D7EF12F0B80EAD6FB7C0AEF06FEC1D
:1025A20011F0B80E0001B46F8BEC10F012004B501A
:1025B200D8A4DEEF12F0E0EF12F0E2EF12F0EEEF4D
:1025C20012F04C0E446E4BC045F0A1EC11F04C0ED3
:1025D200446E000E456E5BEC0BF012004B50D8A41B
:1025E200F5EF12F0F7EF12F0F9EF12F005EF13F03A
:1025F2004C0E446E4BC045F0A1EC11F04C0E446EF3
:10260200010E456E5BEC0BF012003950D8A40CEFB2
:1026120013F00EEF13F010EF13F01CEF13F03A0E5D
:10262200326E39C033F0D2EC11F03A0E326E000E37
:10263200336EEDEC0BF012003950D8A423EF13F0F7
:1026420025EF13F027EF13F033EF13F03A0E326E4B
:1026520039C033F0D2EC11F03A0E326E010E336E05
:10266200EDEC0BF012000001AD51AE11D8A43CEF1D
:1026720013F03EEF13F040EF13F044EF13F0ADC050
:102682004EF0AEC04FF0010E12000001AD51AE117E
:10269200D8A44EEF13F050EF13F052EF13F056EFB1
:1026A20013F0ADC050F0AEC051F0010E12000001A7
:1026B200AD51AE11D8A460EF13F062EF13F064EFE6
:1026C20013F068EF13F0ADC052F0AEC053F0010E3C
:1026D20012000001AD51AE11D8A472EF13F074EFE5
:1026E20013F076EF13F07AEF13F0ADC054F0AEC0F2
:1026F20055F0010E12000001AD51AE11D8A484EFC5
:1027020013F086EF13F088EF13F08CEF13F0ADC0E7
:1027120056F0AEC057F0010E12000001AD51AE11DD
:10272200D8A496EF13F098EF13F09AEF13F09EEF00
:1027320013F0ADC058F0AEC059F0010E1200000106
:10274200AD51AE11D8A4A8EF13F0AAEF13F0ACEF7D
:1027520013F0B0EF13F0ADC05AF0AEC05BF0010E53
:1027620012000001AD51AE11D8A4BAEF13F0BCEFC4
:1027720013F0BEEF13F0C2EF13F0ADC05CF0AEC0C9
:102782005DF0010E1200800F810F820F830F840F04
:102792009C284C287901D82851010201B02849010E
:1027A2000101C428410100010001AD51AE11D8A4BC
:1027B200DDEF13F0DFEF13F0E1EF13F0E5EF13F0CD
:1027C200ADC05EF0AEC05FF012000001AD51AE11BF
:1027D200D8A4EEEF13F0F0EF13F0F2EF13F0F6EFF0
:1027E20013F0ADC060F0AEC061F012000001AD5157
:1027F200AE11D8A4FFEF13F001EF14F003EF14F0C1
:1028020007EF14F0ADC062F0AEC063F0120064A234
:102812000DEF14F07CEF14F02C0E4B6ED8EC12F08E
:10282200120064A217EF14F081EF14F02D0E4B6E1C
:10283200D8EC12F0120064A221EF14F086EF14F02B
:102842002E0E4B6ED8EC12F0120064A22BEF14F095
:102852008BEF14F02B0E4B6ED8EC12F0120064A228
:1028620035EF14F090EF14F02C0E4B6EEFEC12F0EB
:10287200120064A23FEF14F095EF14F02D0E4B6E90
:10288200EFEC12F0120064A249EF14F09AEF14F088
:102892002E0E4B6EEFEC12F0120064A253EF14F006
:1028A2009FEF14F02B0E4B6EEFEC12F0120064A2AD
:1028B2005DEF14F0A4EF14F0300E4B6EEFEC12F05B
:1028C200120064A267EF14F0A9EF14F0310E4B6E00
:1028D200EFEC12F0120064A271EF14F0AEEF14F0FC
:1028E2002F0E4B6EEFEC12F012003CEC0EF078EF74
:1028F20014F06BEF01F02C0E396E06EC13F012009F
:102902002D0E396E06EC13F012002E0E396E06EC07
:1029120013F012002B0E396E06EC13F012002C0E7F
:10292200396E1DEC13F012002D0E396E1DEC13F0F2
:1029320012002E0E396E1DEC13F012002B0E396EA2
:102942001DEC13F01200300E396E1DEC13F0120064
:10295200310E396E1DEC13F012002F0E396E1DEC84
:0429620013F012005C
:020000040030CA
:02000400FF817A
:00000001FF
